:040000005DEF06F0BA
:1008000000414E533A200000F00E936EF00E8A6EB7
:100810008150F00B436EF00E4318D8A412EF04F091
:1008200014EF04F008EF04F08150F00B436EF00E6B
:100830004318D8A41EEF04F020EF04F008EF04F0F2
:10084000000E026E320E016EFDEC05F0F00E8A6EA7
:100850008150F00B436EF00E4318D8B432EF04F021
:1008600034EF04F028EF04F08150F00B436EF00EEB
:100870004318D8B43EEF04F040EF04F028EF04F042
:10088000000E026E140E016EFDEC05F08150F00BAF
:10089000436EFE0E8A6E8150F00B436E43C041F0F2
:1008A000F00E4318D8B457EF04F059EF04F06BEF93
:1008B00004F0000E426E60EF04F08150F00B416EC8
:1008C000F00E4118D8A467EF04F069EF04F05DEF73
:1008D00004F0CFEF04F0FD0E8A6E8150F00B436EF2
:1008E00043C041F0F00E4318D8B479EF04F07BEF29
:1008F00004F08DEF04F0010E426E82EF04F081509F
:10090000F00B416EF00E4118D8A489EF04F08BEF84
:1009100004F07FEF04F0CFEF04F0FB0E8A6E8150FD
:10092000F00B436E43C041F0F00E4318D8B49BEF78
:1009300004F09DEF04F0AFEF04F0020E426EA4EF5E
:1009400004F08150F00B416EF00E4118D8A4ABEFCB
:1009500004F0ADEF04F0A1EF04F0CFEF04F0F70ED8
:100960008A6E8150F00B436E43C041F0F00E431885
:10097000D8B4BDEF04F0BFEF04F049EF04F0030E6C
:10098000426EC6EF04F08150F00B416EF00E41183C
:10099000D8A4CDEF04F0CFEF04F0C3EF04F0E00EE5
:1009A0004318D8A4D6EF04F0D8EF04F0E3EF04F036
:1009B0004250040D310EF324D96E000EF420DA6E8D
:1009C000DF5014EF05F0D00E4318D8A4EAEF04F07E
:1009D000ECEF04F0F7EF04F04250040D320EF32474
:1009E000D96E000EF420DA6EDF5014EF05F0B00E71
:1009F0004318D8A4FEEF04F000EF05F00BEF05F06C
:100A00004250040D330EF324D96E000EF420DA6E3A
:100A1000DF5014EF05F04250040D340EF324D96E6C
:100A2000000EF420DA6EDF501200000E306E000E61
:100A30002F6E720ED36E000E306E000E2F6E100EE3
:100A40002F24D96E000E3020DA6E200EDF6E2F4A72
:100A5000302A30BE35EF05F0305009E11E0E2F5C14
:100A6000D8A035EF05F037EF05F01FEF05F0F19E48
:100A700077EC06F004EC04F02E6E200E2E18D8A4AD
:100A800044EF05F046EF05F06AEF05F097EC06F04D
:100A9000000E306E000E2F6E100E2F24D96E000E39
:100AA0003020DA6E200EDF6E2F4A302A30BE62EF21
:100AB00005F0305009E11E0E2F5CD8A062EF05F062
:100AC00064EF05F04CEF05F0000E306E000E2F6E57
:100AD0003AEF05F03D0E2E18D8A471EF05F073EF34
:100AE00005F0A0EF05F097EC06F0000E0B6E010E7E
:100AF0000C6E080E0D6E000E22EC06F0C00ED7EC48
:100B000005F0000E306E000E2F6E100E2F24D96EE1
:100B1000000E3020DA6EDF50B1EC05F02F4A302A9B
:100B200030BE9CEF05F0305009E11E0E2F5CD8A0BE
:100B30009CEF05F09EEF05F085EF05F03AEF05F02C
:100B4000100E2F24D96E000E3020DA6E2EC0DFFF7B
:100B50002F4A302A2E50B1EC05F03AEF05F000EFA5
:100B600000F0086E08C007F0F00E07168C500F0B4F
:100B700007108C6E8C808C8200F08C92000E026EBE
:100B8000010E016EFDEC05F008C007F0073AF00E0B
:100B900007168C500F0B07108C6E8C8200F08C9215
:100BA000000E026E030E016EFDEC05F01200086EE1
:100BB00008C007F0F00E07168C500F0B07108C6E54
:100BC0008C908C8200F08C92000E026E010E016EF1
:100BD000FDEC05F008C007F0073AF00E07168C5040
:100BE0000F0B07108C6E8C8200F08C92000E026E40
:100BF000030E016EFDEC05F01200000E046E000EF7
:100C0000036E16EF06F0000E066E000E056E054A26
:100C1000062A065009E1A50E055CD8A012EF06F0E1
:100C200014EF06F007EF06F0034A042A0150035CB4
:100C300002500458D8A01FEF06F021EF06F003EF92
:100C400006F012000E6E020E0E6029EF06F02BEF7A
:100C500006F034EF06F00B500F0B80090F6E0F50AB
:100C6000D7EC05F03BEF06F00B500F0BC0090F6EF1
:100C70000F50D7EC05F00CC009F00DC00AF042ECA3
:100C800006F012004EEF06F009C0F6FF0AC0F7FFAB
:100C90000800F550B1EC05F0094A0A2A09C0F6FF30
:100CA0000AC0F7FF0800F5500009D8A45AEF06F073
:100CB0005CEF06F044EF06F012001E0EF66E0D0E0D
:100CC000F76E000EF86E00EE31F010EE10F0090035
:100CD000F5CFEEFFE550E150FAE1436A426A416A1E
:100CE000000EF86E080EF76E000115EF05F0000E0D
:100CF000956E000E026E0F0E016EFDEC05F0020EF9
:100D0000D7EC05F0280ED7EC05F0010ED7EC05F076
:100D10000C0ED7EC05F0060ED7EC05F012003738B4
:100D2000392F3435362A3132332D20303D2B010E08
:060D3000D7EC05F01200F3
:020000040020DA
:08000000FFFFFFFFFFFFFFFF00
:020000040030CA
:0E00000000091F1EFF0181FF0FC00FE00F401F
:00000001FF
